:0600000000F0B5EF00F076
:10000800FFFF7F82E1CF70F0E2CF71F0D9CF72F0BD
:10001800DACF73F0F6CF74F0F7CF75F0F8CF76F04B
:10002800F5CF77F09EAA1BEF00F01EEF00F0FFFF60
:10003800A1EF00F0FFFF9DAA24EF00F027EF00F0EA
:10004800FFFFA1EF00F0FFFFABA22DEF00F030EFB4
:1000580000F0FFFF33EF00F0FFFFAB98AB88FFFF26
:10006800AECF78F078C0ADFFFFFFACA23EEF00F056
:1000780041EF00F0FFFF38EF00F0FFFF5B0E78184C
:10008800D8A449EF00F04CEF00F0FFFF55EF00F067
:10009800FFFFB30E7B6E000E7C6E010E7E6E9FEF2F
:1000A80000F0FFFF5D0E7818D8A45DEF00F060EF58
:1000B80000F0FFFF71EF00F0FFFF7E04D8A467EFA8
:1000C80000F06AEF00F0FFFF71EF00F0FFFF000E95
:1000D8007E6E37EC04F09FEF00F0FFFF7E04D8A49B
:1000E80078EF00F07BEF00F0FFFF9FEF00F0FFFFDD
:1000F800B30E7B5C6E6E000E7C586F6E6FBE91EF18
:1001080000F06F5007E1060E6E5CD8B08EEF00F07D
:1001180091EF00F0FFFF9CEF00F0FFFF7BC0D9FFDD
:100128007CC0DAFF78C0DFFF7B4A7C2A9FEF00F0B3
:10013800FFFF000E7E6EFFFF9E9AFFFF77C0F5FF60
:1001480076C0F8FF75C0F7FF74C0F6FF73C0DAFF1A
:1001580072C0D9FF71C0E2FF70C0E1FF7F92110049
:06016800FFFFCFEF09F0DC
:10060000005B414E303A2568755D0000FFFF3EC03B
:10061000D9FF3FC0DAFFDECFF6FFDDCFF7FF0800DE
:10062000FFFFF550250AD8A418EF03F01BEF03F0E5
:10063000FFFF1EEF04F0FFFF3EC0D9FF3FC0DAFF0F
:10064000DE2A000EDD22000E0001906F000E8F6F7B
:100650008FC07DF0916992693EC0D9FF3FC0DAFF3B
:10066000DECF4FF0DDCF50F04FC0F6FF50C0F7FFA8
:100670000800FFFFF5CF4EF04DEF03F0FFFF4F4AAC
:10068000502A64EF03F0FFFF690E4E6E64EF03F033
:10069000FFFF000E4E6E64EF03F0FFFF4E50426E00
:1006A000436A4350000AD8B458EF03F048EF03F010
:1006B000FFFF4250680AD8B43EEF03F01D0AD8B4D9
:1006C00043EF03F048EF03F0FFFF4FC0F6FF50C0C9
:1006D000F7FF0800FFFFF550750AD8A472EF03F08A
:1006E00075EF03F0FFFF14EF04F0FFFFBAEF03F024
:1006F000FFFF40C0D9FF41C0DAFFDFCF42F0020E5A
:10070000DE26DFCF43F0000EDD2242C0D9FF43C01A
:10071000DAFFDECF44F0DDCF45F044C046F045C0FF
:1007200047F0486A496A4A6A4B6A4C6A4D6AD1EF97
:1007300003F0FFFF40C0D9FF41C0DAFFDFCF42F036
:10074000020EDE26DFCF43F0000EDD2242C0D9FFCD
:1007500043C0DAFFDECF44F0DDCF45F044C046F0C1
:1007600045C047F0486A496A4A6A4B6A4C6A4D6A12
:10077000D1EF03F0FFFF4E50426E436A4350000A30
:10078000D8B4C5EF03F0D1EF03F0FFFF4250680A81
:10079000D8B499EF03F0010AD8B478EF03F0D1EFA1
:1007A00003F0FFFF010E4F24426E000E5020436EF7
:1007B0003EC0D9FF3FC0DAFF42C0DEFF43C0DDFFCD
:1007C000FBEF03F0FFFF3CC01CF03DC01DF046C036
:1007D0001EF047C01FF048C020F049C021F04AC0B9
:1007E00022F04BC023F04CC024F04DC025F066EC45
:1007F00005F034EF04F0FFFF4FC0F6FF50C0F7FFE5
:100800000800FFFFF550426E436A4350000AD8B417
:100810000CEF04F014EF04F0FFFF4250750AD8B457
:10082000E2EF03F014EF04F0FFFF3EC0D9FF3FC03A
:10083000DAFFDE2A000EDD2234EF04F0FFFF3EC0B7
:10084000D9FF3FC0DAFFDECFF6FFDDCFF7FF0800AC
:10085000FFFFF550016E026A3CC003F03DC004F09A
:100860004EEC07F014EF04F0FFFF1200FFFFFFFF54
:100870004C0E0001B319D8A440EF04F043EF04F08C
:10088000FFFFCAEF04F0FFFF450EB419D8A44BEFE9
:1008900004F04EEF04F0FFFFCAEF04F0FFFF440E38
:1008A000B519D8A456EF04F059EF04F0FFFFCAEFD2
:1008B00004F0FFFF420EB619D8A461EF04F064EF14
:1008C00004F0FFFF63EF05F0FFFFB3EF04F0FFFF5D
:1008D000B8C06CF0D00E6C2681506C18FE0B6C18F2
:1008E000816E020E6C6EF20EFFFFE82EFDD76C2EAD
:1008F000FBD700D08AB07FEF04F083EF04F0FFFF56
:10090000010E85EF04F0FFFF000EFFFF300F000126
:10091000B86FFFFFBFEC07F063EF05F0FFFFB8C053
:100920006CF0D00E6C266C4681506C18FD0B6C1868
:10093000816E020E6C6EF20EFFFFE82EFDD76C2E5C
:10094000FBD700D08AB2A7EF04F0ABEF04F0FFFFB3
:10095000010EADEF04F0FFFF000EFFFF300F0001AE
:10096000B86F89EF04F0FFFFB7516C6E6D6A6D5080
:10097000000AD8B4BEEF04F063EF05F0FFFF6C503F
:10098000300AD8B467EF04F0010AD8B48EEF04F04F
:1009900063EF05F0FFFF4C0EB319D8A4D2EF04F0BB
:1009A000D5EF04F0FFFF63EF05F0FFFF450EB4192C
:1009B000D8A4DDEF04F0E0EF04F0FFFF63EF05F0F3
:1009C000FFFF410EB519D8A4E8EF04F0EBEF04F0F7
:1009D000FFFF63EF05F0FFFF440EB619D8A4F3EF55
:1009E00004F0F6EF04F0FFFF63EF05F0FFFF430EA6
:1009F000B719D8A4FEEF04F001EF05F0FFFF63EF95
:100A000005F0FFFF20EE80F010EEC7F00E0EDBCFFA
:100A1000E3FFE806FCE250EF05F0FFFF000E02ECFA
:100A200009F001C0D6F002C0D7F0C70E596E000E13
:100A30005A6E010E5B6E060E5C6ED6C05DF0D7C0BE
:100A40005EF067EC09F0000E0001D86F3DEF05F095
:100A5000FFFFC70ED825D96EDA6A000EDA22DF5002
:100A6000AD6EFFFFACA237EF05F03AEF05F0FFFFE8
:100A700031EF05F0FFFF0001D82BFFFFC70ED8258F
:100A8000D96EDA6A000EDA22DF50D8A44AEF05F0F8
:100A90004DEF05F0FFFF28EF05F0FFFF63EF05F0D6
:100AA000FFFFB8516C6E6D6A6D50000AD8B45BEFF1
:100AB00005F063EF05F0FFFF6C50300AD8B40DEF7E
:100AC00005F063EF05F0FFFF1200FFFFFFFF0001DD
:100AD00092BF76EF05F0925106E19105D8B073EF21
:100AE00005F076EF05F0FFFF7DEF05F0FFFF000E4C
:100AF000316E010E306E82EF05F0FFFF91C030F0D5
:100B000092C031F0FFFF8FC02EF090C02FF01EC0BA
:100B100032F01FC033F020C034F021C035F022C0C5
:100B200036F023C037F024C038F025C039F0000E6D
:100B30003B6E1F0E3A6E000EB26F16EF06F0FFFF0F
:100B40003A06D8A03B06930E3A24D96E000E3B20FD
:100B5000DA6E32C001F033C002F034C003F035C0A9
:100B600004F036C005F037C006F038C007F039C0D1
:100B700008F00A0E096E000E0A6E000E0B6E000ED3
:100B80000C6E000E0D6E000E0E6E000E0F6E000E3F
:100B9000106ED9EC06F001C026F002C027F003C0A9
:100BA00028F004C029F005C02AF006C02BF007C0C9
:100BB0002CF008C02DF02650300FDF6E3006D8A084
:100BC00031062E06D8A02F0632C001F033C002F045
:100BD00034C003F035C004F036C005F037C006F06D
:100BE00038C007F039C008F00A0E096E000E0A6E10
:100BF000000E0B6E000E0C6E000E0D6E000E0E6ED3
:100C0000000E0F6E000E106E54EC06F001C032F0B4
:100C100002C033F003C034F004C035F005C036F034
:100C200006C037F007C038F008C039F0FFFF3A506F
:100C30003B10D8B41EEF06F021EF06F0FFFF41EFA6
:100C400006F0FFFF325033103410351036103710D5
:100C500038103910D8A42FEF06F032EF06F0FFFF5E
:100C60009FEF05F0FFFF31BE41EF06F0315006E186
:100C70003004D8B03EEF06F041EF06F0FFFF9FEFE3
:100C800005F0FFFF1CC011F01DC012F0930E3A24B6
:100C9000136E000E3B20146E2EC015F02FC016F000
:100CA00082EC08F01200FFFFFFFF20EE11F0070EAC
:100CB000DE6AE806FDE209500A100B100C100D1058
:100CC0000E100F101010D8B468EF06F06BEF06F09E
:100CD000FFFFC6EF06F0FFFF010E196E7BEF06F077
:100CE000FFFFD89009360A360B360C360D360E3615
:100CF0000F361036192AFFFF10AE81EF06F084EF91
:100D000006F0FFFF70EF06F0FFFFFFFFD8901136EF
:100D1000123613361436153616361736183609506D
:100D2000015C0A5002580B5003580C5004580D50E7
:100D300005580E5006580F50075810500858D8A0A4
:100D4000A4EF06F0A7EF06F0FFFFB9EF06F0FFFFF4
:100D50000950015E0A50025A0B50035A0C50045AB3
:100D60000D50055A0E50065A0F50075A1050085A87
:100D70001180FFFFD89010320F320E320D320C323C
:100D80000B320A320932192E85EF06F0FFFF11C02F
:100D900001F012C002F013C003F014C004F015C03B
:100DA00005F016C006F017C007F018C008F01200D2
:100DB000FFFFFFFF09500A100B100C100D100E1052
:100DC0000F101010D8B4E7EF06F0EAEF06F0FFFFBF
:100DD0003BEF07F0FFFF010E116EFAEF06F0FFFF89
:100DE000D89009360A360B360C360D360E360F36CD
:100DF0001036112AFFFF10AE00EF07F003EF07F0E7
:100E0000FFFFEFEF06F0FFFFFFFF0950015C0A5004
:100E100002580B5003580C5004580D5005580E50F2
:100E200006580F50075810500858D8A01AEF07F06E
:100E30001DEF07F0FFFF2EEF07F0FFFF0950015EE7
:100E40000A50025A0B50035A0C50045A0D50055ABE
:100E50000E50065A0F50075A1050085AFFFFD890EC
:100E600010320F320E320D320C320B320A3209328E
:100E7000112E04EF07F0FFFF01C001F002C002F0E5
:100E800003C003F004C004F005C005F006C006F07E
:100E900007C007F008C008F01200FFFFFFFF035073
:100EA0000410D8B456EF07F059EF07F0FFFF64EFD6
:100EB00007F0FFFF03500410D8A461EF07F064EFC0
:100EC00007F0FFFF6AEF07F0FFFF01500CEC0AF09C
:100ED000BCEF07F0FFFF20EE09F00350D9260450C5
:100EE000DA22DE50DE10D8B478EF07F07BEF07F09F
:100EF000FFFF98EF07F0FFFF20EE09F00350D9261F
:100F00000450DA2210EE03F00350E1260450E222EE
:100F1000DE50E65CE650800A096EDE50800A095811
:100F2000D8B095EF07F098EF07F0FFFFBCEF07F0A0
:100F3000FFFF20EE03F00350D9260450DA22DECF63
:100F400005F0DDCF06F003C0D9FF04C0DAFFDECF25
:100F500007F0DDCF08F005500724D96E06500820B1
:100F6000DA6E01C0DFFF20EE03F00350D9260450F3
:100F7000DA22DE2A000EDD22FFFF1200FFFFFFFF54
:100F80005B0EAD6EFFFFACA2C8EF07F0CBEF07F032
:100F9000FFFFC2EF07F0FFFFB3C0ADFFFFFFACA242
:100FA000D4EF07F0D7EF07F0FFFFCEEF07F0FFFF1A
:100FB000B4C0ADFFFFFFACA2E0EF07F0E3EF07F036
:100FC000FFFFDAEF07F0FFFFB5C0ADFFFFFFACA2F8
:100FD000ECEF07F0EFEF07F0FFFFE6EF07F0FFFFA2
:100FE000B6C0ADFFFFFFACA2F8EF07F0FBEF07F0D4
:100FF000FFFFF2EF07F0FFFFB7C0ADFFFFFFACA2AE
:1010000004EF08F007EF08F0FFFFFEEF07F0FFFF27
:10101000B8C0ADFFFFFFACA210EF08F013EF08F06F
:10102000FFFF0AEF08F0FFFF5D0EAD6EFFFFACA201
:101030001CEF08F01FEF08F0FFFF16EF08F0FFFFAE
:101040001200FFFFFFFF000E0001E16F000EE26FD4
:10105000000EE36F000EE46FDD51DE11DF11E011D1
:10106000D8B435EF08F038EF08F0FFFF77EF08F05D
:10107000FFFF010EE56F44EF08F0FFFFD890DD376A
:10108000DE37DF37E037E52BFFFFE0AF4AEF08F050
:101090004DEF08F0FFFF3DEF08F0FFFFFFFFD89096
:1010A000E137E237E337E437DD51D95DDE51DA5914
:1010B000DF51DB59E051DC59D8A061EF08F064EF53
:1010C00008F0FFFF6EEF08F0FFFFDD51D95FDE5142
:1010D000DA5BDF51DB5BE051DC5BE181FFFFD89045
:1010E000E033DF33DE33DD33E52F4EEF08F0FFFF73
:1010F000E1C0D9F0E2C0DAF0E3C0DBF0E4C0DCF03C
:101100001200FFFFFFFF16BE88EF08F08BEF08F01C
:10111000FFFF92EF08F0FFFF15C01AF016C01BF09A
:1011200097EF08F0FFFF000E1B6E000E1A6EFFFF18
:10113000000E196E000E186EABEF08F0FFFF000EE8
:10114000026E200E016E11C003F012C004F04EECCE
:1011500007F0184A192AFFFF1A50185C1950800A24
:10116000176E1B50800A1758D8A0B9EF08F0BCEFD3
:1011700008F0FFFF9EEF08F0FFFF13C00AF014C055
:101180000BF011C00CF012C00DF090EC09F0120041
:10119000FFFFFFFFAC8AAB88AB8E800E0001E66FCD
:1011A000250EE76F000EE86F000EE96F000ED96F95
:1011B000120EDA6F7A0EDB6F000EDC6FE6C0DDF028
:1011C000E7C0DEF0E8C0DFF0E9C0E0F022EC08F0B4
:1011D000070EF2EF08F0FFFF0001D890DC33DB339D
:1011E000DA33D933FFFFE82EEBEF08F0D905AF6E05
:1011F000AC98AC94000EAE6E000EAD6E9E989E9AAA
:101200001200FFFFFFFF046E04C003F00346034615
:101210000346C2500318C70B0318C26EC284FFFFF7
:10122000C2B415EF09F018EF09F0FFFF0FEF09F056
:10123000FFFFC284FFFFC2B420EF09F023EF09F0E3
:10124000FFFF1AEF09F0FFFFC284FFFFC2B42BEFCC
:1012500009F02EEF09F0FFFF25EF09F0FFFFC3CFE4
:1012600079F0C4CF7AF079C001F07AC002F01200B0
:10127000FFFFFFFF53C057F054C058F04FEF09F085
:10128000FFFF51C03CF052C03DF0570E3E6E000EC5
:101290003F6E55C040F056C041F006EC03F0FFFF32
:1012A00057C0F6FF58C0F7FF0800FFFFF5500009D0
:1012B000D8A45DEF09F060EF09F0FFFF40EF09F0FF
:1012C000FFFF000E526E000E516E1200FFFFFFFF77
:1012D0005D0E5F6E000E606E59C061F05AC062F024
:1012E000000E656E000E646E000E6B6E000E6A6E70
:1012F000610E516E000E526E5BC053F05CC054F034
:101300005F0E556E000E566E39EC09F0645059248C
:10131000D96E65505A20DA6E000EDF6E1200FFFFA4
:10132000FFFF000E106E000E0F6EA3EF09F0FFFF1F
:101330000EC001F0026A0CC003F00DC004F04EECC8
:1013400007F00F4A102AFFFF0F500A24D96E1050E1
:101350000B20DA6EDF500E6E0E50D8A4B2EF09F0FB
:10136000B5EF09F0FFFF97EF09F0FFFF1200FFFF55
:10137000FFFF9268FC0E936EBF0E946E9568070E89
:10138000966E000E896E000E8A6E000E8B6E000E39
:101390008C6E000E8D6E070EC1121200FFFF00EE64
:1013A00080F0470EEE6AE806FDE17E6A7D6A7C6A9F
:1013B0007B6A7A6A796A7F907F92000EF86E0001EC
:1013C000F8EF09F0FFFF07EC0AF0B8EC09F0C9EC00
:1013D00008F0EFEC09F000EC0AF01200FFFFFFFF4D
:1013E000F28EF28CD08E9E9A9F8A9D8A1200FFFF09
:1013F000FFFFE2EC09F0FFFFFBEF09F0B5EF00F0B3
:10140000FFFF810EC26E840EC16E1200FFFFFFFF50
:10141000000ED36E1200FFFFFFFF1200FFFFFFFF61
:020000040020DA
:08000000FFFFFFFFFFFFFFFF00
:020000040030CA
:0E000000FF220D0EFF0181FF0FC00FE00F4029
:00000001FF
